{
  "_format": "hh-sol-artifact-1",
  "contractName": "SupplyChain",
  "sourceName": "contracts/SupplyChain.sol",
  "abi": [
    {
      "inputs": [
        {
          "internalType": "string",
          "name": "_name",
          "type": "string"
        },
        {
          "internalType": "string",
          "name": "_id",
          "type": "string"
        },
        {
          "internalType": "string",
          "name": "_manufactureDate",
          "type": "string"
        }
      ],
      "name": "addProduct",
      "outputs": [],
      "stateMutability": "nonpayable",
      "type": "function"
    },
    {
      "inputs": [
        {
          "internalType": "string",
          "name": "_id",
          "type": "string"
        }
      ],
      "name": "getProduct",
      "outputs": [
        {
          "internalType": "string",
          "name": "",
          "type": "string"
        },
        {
          "internalType": "string",
          "name": "",
          "type": "string"
        },
        {
          "internalType": "string",
          "name": "",
          "type": "string"
        },
        {
          "internalType": "string",
          "name": "",
          "type": "string"
        }
      ],
      "stateMutability": "view",
      "type": "function"
    },
    {
      "inputs": [
        {
          "internalType": "string",
          "name": "",
          "type": "string"
        }
      ],
      "name": "products",
      "outputs": [
        {
          "internalType": "string",
          "name": "name",
          "type": "string"
        },
        {
          "internalType": "string",
          "name": "id",
          "type": "string"
        },
        {
          "internalType": "string",
          "name": "manufactureDate",
          "type": "string"
        },
        {
          "internalType": "string",
          "name": "location",
          "type": "string"
        }
      ],
      "stateMutability": "view",
      "type": "function"
    },
    {
      "inputs": [
        {
          "internalType": "string",
          "name": "_id",
          "type": "string"
        },
        {
          "internalType": "string",
          "name": "_newLocation",
          "type": "string"
        }
      ],
      "name": "updateProductLocation",
      "outputs": [],
      "stateMutability": "nonpayable",
      "type": "function"
    }
  ],
  "bytecode": "0x608060405234801561001057600080fd5b50610bf4806100206000396000f3fe608060405234801561001057600080fd5b506004361061004c5760003560e01c80630186a423146100515780630e34b00e1461008457806368111cce146100a05780637ae19846146100d3575b600080fd5b61006b6004803603810190610066919061082d565b6100ef565b60405161007b94939291906109f2565b60405180910390f35b61009e600480360381019061009991906108da565b610355565b005b6100ba60048036038101906100b5919061082d565b610445565b6040516100ca94939291906109f2565b60405180910390f35b6100ed60048036038101906100e8919061086e565b6106e3565b005b60008180516020810182018051848252602083016020850120818352809550505050505060009150905080600001805461012890610b1d565b80601f016020809104026020016040519081016040528092919081815260200182805461015490610b1d565b80156101a15780601f10610176576101008083540402835291602001916101a1565b820191906000526020600020905b81548152906001019060200180831161018457829003601f168201915b5050505050908060010180546101b690610b1d565b80601f01602080910402602001604051908101604052809291908181526020018280546101e290610b1d565b801561022f5780601f106102045761010080835404028352916020019161022f565b820191906000526020600020905b81548152906001019060200180831161021257829003601f168201915b50505050509080600201805461024490610b1d565b80601f016020809104026020016040519081016040528092919081815260200182805461027090610b1d565b80156102bd5780601f10610292576101008083540402835291602001916102bd565b820191906000526020600020905b8154815290600101906020018083116102a057829003601f168201915b5050505050908060030180546102d290610b1d565b80601f01602080910402602001604051908101604052809291908181526020018280546102fe90610b1d565b801561034b5780601f106103205761010080835404028352916020019161034b565b820191906000526020600020905b81548152906001019060200180831161032e57829003601f168201915b5050505050905084565b60405180608001604052808481526020018381526020018281526020016040518060400160405280600f81526020017f4174204d616e75666163747572657200000000000000000000000000000000008152508152506000836040516103bb91906109db565b908152602001604051809103902060008201518160000190805190602001906103e5929190610722565b506020820151816001019080519060200190610402929190610722565b50604082015181600201908051906020019061041f929190610722565b50606082015181600301908051906020019061043c929190610722565b50905050505050565b6060806060806000808660405161045c91906109db565b908152602001604051809103902060405180608001604052908160008201805461048590610b1d565b80601f01602080910402602001604051908101604052809291908181526020018280546104b190610b1d565b80156104fe5780601f106104d3576101008083540402835291602001916104fe565b820191906000526020600020905b8154815290600101906020018083116104e157829003601f168201915b5050505050815260200160018201805461051790610b1d565b80601f016020809104026020016040519081016040528092919081815260200182805461054390610b1d565b80156105905780601f1061056557610100808354040283529160200191610590565b820191906000526020600020905b81548152906001019060200180831161057357829003601f168201915b505050505081526020016002820180546105a990610b1d565b80601f01602080910402602001604051908101604052809291908181526020018280546105d590610b1d565b80156106225780601f106105f757610100808354040283529160200191610622565b820191906000526020600020905b81548152906001019060200180831161060557829003601f168201915b5050505050815260200160038201805461063b90610b1d565b80601f016020809104026020016040519081016040528092919081815260200182805461066790610b1d565b80156106b45780601f10610689576101008083540402835291602001916106b4565b820191906000526020600020905b81548152906001019060200180831161069757829003601f168201915b505050505081525050905080600001518160200151826040015183606001519450945094509450509193509193565b600080836040516106f491906109db565b908152602001604051809103902090508181600301908051906020019061071c929190610722565b50505050565b82805461072e90610b1d565b90600052602060002090601f0160209004810192826107505760008555610797565b82601f1061076957805160ff1916838001178555610797565b82800160010185558215610797579182015b8281111561079657825182559160200191906001019061077b565b5b5090506107a491906107a8565b5090565b5b808211156107c15760008160009055506001016107a9565b5090565b60006107d86107d384610a84565b610a53565b9050828152602081018484840111156107f057600080fd5b6107fb848285610adb565b509392505050565b600082601f83011261081457600080fd5b81356108248482602086016107c5565b91505092915050565b60006020828403121561083f57600080fd5b600082013567ffffffffffffffff81111561085957600080fd5b61086584828501610803565b91505092915050565b6000806040838503121561088157600080fd5b600083013567ffffffffffffffff81111561089b57600080fd5b6108a785828601610803565b925050602083013567ffffffffffffffff8111156108c457600080fd5b6108d085828601610803565b9150509250929050565b6000806000606084860312156108ef57600080fd5b600084013567ffffffffffffffff81111561090957600080fd5b61091586828701610803565b935050602084013567ffffffffffffffff81111561093257600080fd5b61093e86828701610803565b925050604084013567ffffffffffffffff81111561095b57600080fd5b61096786828701610803565b9150509250925092565b600061097c82610ab4565b6109868185610abf565b9350610996818560208601610aea565b61099f81610bad565b840191505092915050565b60006109b582610ab4565b6109bf8185610ad0565b93506109cf818560208601610aea565b80840191505092915050565b60006109e782846109aa565b915081905092915050565b60006080820190508181036000830152610a0c8187610971565b90508181036020830152610a208186610971565b90508181036040830152610a348185610971565b90508181036060830152610a488184610971565b905095945050505050565b6000604051905081810181811067ffffffffffffffff82111715610a7a57610a79610b7e565b5b8060405250919050565b600067ffffffffffffffff821115610a9f57610a9e610b7e565b5b601f19601f8301169050602081019050919050565b600081519050919050565b600082825260208201905092915050565b600081905092915050565b82818337600083830152505050565b60005b83811015610b08578082015181840152602081019050610aed565b83811115610b17576000848401525b50505050565b60006002820490506001821680610b3557607f821691505b60208210811415610b4957610b48610b4f565b5b50919050565b7f4e487b7100000000000000000000000000000000000000000000000000000000600052602260045260246000fd5b7f4e487b7100000000000000000000000000000000000000000000000000000000600052604160045260246000fd5b6000601f19601f830116905091905056fea26469706673582212202e83f31256f773f33fddbb10a8adfa0a8c5abafd57fcabfba5911fda63eb3b0b64736f6c63430008000033",
  "linkReferences": {},
  "deployedLinkReferences": {}
}