{
  "_format": "hh-sol-artifact-1",
  "contractName": "SupplyChain",
  "sourceName": "contracts/SupplyChain.sol",
  "abi": [
    {
      "anonymous": false,
      "inputs": [
        {
          "indexed": true,
          "internalType": "string",
          "name": "productId",
          "type": "string"
        },
        {
          "indexed": false,
          "internalType": "string",
          "name": "newLocation",
          "type": "string"
        }
      ],
      "name": "LocationUpdated",
      "type": "event"
    },
    {
      "inputs": [
        {
          "internalType": "string",
          "name": "_name",
          "type": "string"
        },
        {
          "internalType": "string",
          "name": "_id",
          "type": "string"
        },
        {
          "internalType": "string",
          "name": "_manufactureDate",
          "type": "string"
        }
      ],
      "name": "addProduct",
      "outputs": [],
      "stateMutability": "nonpayable",
      "type": "function"
    },
    {
      "inputs": [
        {
          "internalType": "string",
          "name": "_id",
          "type": "string"
        }
      ],
      "name": "getProduct",
      "outputs": [
        {
          "internalType": "string",
          "name": "",
          "type": "string"
        },
        {
          "internalType": "string",
          "name": "",
          "type": "string"
        },
        {
          "internalType": "string",
          "name": "",
          "type": "string"
        },
        {
          "internalType": "string[]",
          "name": "",
          "type": "string[]"
        }
      ],
      "stateMutability": "view",
      "type": "function"
    },
    {
      "inputs": [
        {
          "internalType": "string",
          "name": "",
          "type": "string"
        }
      ],
      "name": "productExists",
      "outputs": [
        {
          "internalType": "bool",
          "name": "",
          "type": "bool"
        }
      ],
      "stateMutability": "view",
      "type": "function"
    },
    {
      "inputs": [
        {
          "internalType": "string",
          "name": "",
          "type": "string"
        }
      ],
      "name": "products",
      "outputs": [
        {
          "internalType": "string",
          "name": "name",
          "type": "string"
        },
        {
          "internalType": "string",
          "name": "id",
          "type": "string"
        },
        {
          "internalType": "string",
          "name": "manufactureDate",
          "type": "string"
        }
      ],
      "stateMutability": "view",
      "type": "function"
    },
    {
      "inputs": [
        {
          "internalType": "string",
          "name": "_id",
          "type": "string"
        },
        {
          "internalType": "string",
          "name": "_newLocation",
          "type": "string"
        }
      ],
      "name": "updateProductLocation",
      "outputs": [],
      "stateMutability": "nonpayable",
      "type": "function"
    }
  ],
  "bytecode": "0x608060405234801561001057600080fd5b50611069806100206000396000f3fe608060405234801561001057600080fd5b50600436106100575760003560e01c80630186a4231461005c5780630e34b00e1461008e57806368111cce146100aa5780637ae19846146100dd5780638addc051146100f9575b600080fd5b61007660048036038101906100719190610a32565b610129565b60405161008593929190610d85565b60405180910390f35b6100a860048036038101906100a39190610adf565b610301565b005b6100c460048036038101906100bf9190610a32565b610485565b6040516100d49493929190610dd1565b60405180910390f35b6100f760048036038101906100f29190610a73565b6107d5565b005b610113600480360381019061010e9190610a32565b6108f1565b6040516101209190610d48565b60405180910390f35b60008180516020810182018051848252602083016020850120818352809550505050505060009150905080600001805461016290610f92565b80601f016020809104026020016040519081016040528092919081815260200182805461018e90610f92565b80156101db5780601f106101b0576101008083540402835291602001916101db565b820191906000526020600020905b8154815290600101906020018083116101be57829003601f168201915b5050505050908060010180546101f090610f92565b80601f016020809104026020016040519081016040528092919081815260200182805461021c90610f92565b80156102695780601f1061023e57610100808354040283529160200191610269565b820191906000526020600020905b81548152906001019060200180831161024c57829003601f168201915b50505050509080600201805461027e90610f92565b80601f01602080910402602001604051908101604052809291908181526020018280546102aa90610f92565b80156102f75780601f106102cc576101008083540402835291602001916102f7565b820191906000526020600020905b8154815290600101906020018083116102da57829003601f168201915b5050505050905083565b6001826040516103119190610d31565b908152602001604051809103902060009054906101000a900460ff161561036d576040517f08c379a000000000000000000000000000000000000000000000000000000000815260040161036490610e52565b60405180910390fd5b6000808360405161037e9190610d31565b90815260200160405180910390209050838160000190805190602001906103a6929190610927565b50828160010190805190602001906103bf929190610927565b50818160020190805190602001906103d8929190610927565b508060030180600181540180825580915050600190039060005260206000200160006040518060400160405280600f81526020017f4174204d616e756661637475726572000000000000000000000000000000000081525090919091509080519060200190610448929190610927565b506001808460405161045a9190610d31565b908152602001604051809103902060006101000a81548160ff02191690831515021790555050505050565b60608060608060018560405161049b9190610d31565b908152602001604051809103902060009054906101000a900460ff166104f6576040517f08c379a00000000000000000000000000000000000000000000000000000000081526004016104ed90610e32565b60405180910390fd5b600080866040516105079190610d31565b908152602001604051809103902060405180608001604052908160008201805461053090610f92565b80601f016020809104026020016040519081016040528092919081815260200182805461055c90610f92565b80156105a95780601f1061057e576101008083540402835291602001916105a9565b820191906000526020600020905b81548152906001019060200180831161058c57829003601f168201915b505050505081526020016001820180546105c290610f92565b80601f01602080910402602001604051908101604052809291908181526020018280546105ee90610f92565b801561063b5780601f106106105761010080835404028352916020019161063b565b820191906000526020600020905b81548152906001019060200180831161061e57829003601f168201915b5050505050815260200160028201805461065490610f92565b80601f016020809104026020016040519081016040528092919081815260200182805461068090610f92565b80156106cd5780601f106106a2576101008083540402835291602001916106cd565b820191906000526020600020905b8154815290600101906020018083116106b057829003601f168201915b5050505050815260200160038201805480602002602001604051908101604052809291908181526020016000905b828210156107a757838290600052602060002001805461071a90610f92565b80601f016020809104026020016040519081016040528092919081815260200182805461074690610f92565b80156107935780601f1061076857610100808354040283529160200191610793565b820191906000526020600020905b81548152906001019060200180831161077657829003601f168201915b5050505050815260200190600101906106fb565b5050505081525050905080600001518160200151826040015183606001519450945094509450509193509193565b6001826040516107e59190610d31565b908152602001604051809103902060009054906101000a900460ff16610840576040517f08c379a000000000000000000000000000000000000000000000000000000000815260040161083790610e32565b60405180910390fd5b600080836040516108519190610d31565b90815260200160405180910390209050806003018290806001815401808255809150506001900390600052602060002001600090919091909150908051906020019061089e929190610927565b50826040516108ad9190610d31565b60405180910390207f5ce8b14d0bc114fb7e0389871755b1784cc4a79f9ab4f72255535491d7fb5e9c836040516108e49190610d63565b60405180910390a2505050565b6001818051602081018201805184825260208301602085012081835280955050505050506000915054906101000a900460ff1681565b82805461093390610f92565b90600052602060002090601f016020900481019282610955576000855561099c565b82601f1061096e57805160ff191683800117855561099c565b8280016001018555821561099c579182015b8281111561099b578251825591602001919060010190610980565b5b5090506109a991906109ad565b5090565b5b808211156109c65760008160009055506001016109ae565b5090565b60006109dd6109d884610ea3565b610e72565b9050828152602081018484840111156109f557600080fd5b610a00848285610f50565b509392505050565b600082601f830112610a1957600080fd5b8135610a298482602086016109ca565b91505092915050565b600060208284031215610a4457600080fd5b600082013567ffffffffffffffff811115610a5e57600080fd5b610a6a84828501610a08565b91505092915050565b60008060408385031215610a8657600080fd5b600083013567ffffffffffffffff811115610aa057600080fd5b610aac85828601610a08565b925050602083013567ffffffffffffffff811115610ac957600080fd5b610ad585828601610a08565b9150509250929050565b600080600060608486031215610af457600080fd5b600084013567ffffffffffffffff811115610b0e57600080fd5b610b1a86828701610a08565b935050602084013567ffffffffffffffff811115610b3757600080fd5b610b4386828701610a08565b925050604084013567ffffffffffffffff811115610b6057600080fd5b610b6c86828701610a08565b9150509250925092565b6000610b828383610c0e565b905092915050565b6000610b9582610ee3565b610b9f8185610f06565b935083602082028501610bb185610ed3565b8060005b85811015610bed5784840389528151610bce8582610b76565b9450610bd983610ef9565b925060208a01995050600181019050610bb5565b50829750879550505050505092915050565b610c0881610f44565b82525050565b6000610c1982610eee565b610c238185610f17565b9350610c33818560208601610f5f565b610c3c81611022565b840191505092915050565b6000610c5282610eee565b610c5c8185610f28565b9350610c6c818560208601610f5f565b610c7581611022565b840191505092915050565b6000610c8b82610eee565b610c958185610f39565b9350610ca5818560208601610f5f565b80840191505092915050565b6000610cbe601683610f28565b91507f50726f6475637420646f6573206e6f74206578697374000000000000000000006000830152602082019050919050565b6000610cfe601683610f28565b91507f50726f6475637420616c726561647920657869737473000000000000000000006000830152602082019050919050565b6000610d3d8284610c80565b915081905092915050565b6000602082019050610d5d6000830184610bff565b92915050565b60006020820190508181036000830152610d7d8184610c47565b905092915050565b60006060820190508181036000830152610d9f8186610c47565b90508181036020830152610db38185610c47565b90508181036040830152610dc78184610c47565b9050949350505050565b60006080820190508181036000830152610deb8187610c47565b90508181036020830152610dff8186610c47565b90508181036040830152610e138185610c47565b90508181036060830152610e278184610b8a565b905095945050505050565b60006020820190508181036000830152610e4b81610cb1565b9050919050565b60006020820190508181036000830152610e6b81610cf1565b9050919050565b6000604051905081810181811067ffffffffffffffff82111715610e9957610e98610ff3565b5b8060405250919050565b600067ffffffffffffffff821115610ebe57610ebd610ff3565b5b601f19601f8301169050602081019050919050565b6000819050602082019050919050565b600081519050919050565b600081519050919050565b6000602082019050919050565b600082825260208201905092915050565b600082825260208201905092915050565b600082825260208201905092915050565b600081905092915050565b60008115159050919050565b82818337600083830152505050565b60005b83811015610f7d578082015181840152602081019050610f62565b83811115610f8c576000848401525b50505050565b60006002820490506001821680610faa57607f821691505b60208210811415610fbe57610fbd610fc4565b5b50919050565b7f4e487b7100000000000000000000000000000000000000000000000000000000600052602260045260246000fd5b7f4e487b7100000000000000000000000000000000000000000000000000000000600052604160045260246000fd5b6000601f19601f830116905091905056fea2646970667358221220baf93a1d925b552fd1f108dd1e50b9b2446280c1cb4c2933eae2c834d0ea0c5a64736f6c63430008000033",
  "linkReferences": {},
  "deployedLinkReferences": {}
}