{
  "_format": "hh-sol-artifact-1",
  "contractName": "SupplyChain",
  "sourceName": "contracts/SupplyChain.sol",
  "abi": [
    {
      "inputs": [
        {
          "internalType": "string",
          "name": "_name",
          "type": "string"
        },
        {
          "internalType": "string",
          "name": "_id",
          "type": "string"
        },
        {
          "internalType": "string",
          "name": "_manufactureDate",
          "type": "string"
        }
      ],
      "name": "addProduct",
      "outputs": [],
      "stateMutability": "nonpayable",
      "type": "function"
    },
    {
      "inputs": [
        {
          "internalType": "string",
          "name": "_id",
          "type": "string"
        }
      ],
      "name": "getProduct",
      "outputs": [
        {
          "internalType": "string",
          "name": "",
          "type": "string"
        },
        {
          "internalType": "string",
          "name": "",
          "type": "string"
        },
        {
          "internalType": "string",
          "name": "",
          "type": "string"
        },
        {
          "internalType": "string",
          "name": "",
          "type": "string"
        }
      ],
      "stateMutability": "view",
      "type": "function"
    },
    {
      "inputs": [
        {
          "internalType": "string",
          "name": "",
          "type": "string"
        }
      ],
      "name": "products",
      "outputs": [
        {
          "internalType": "string",
          "name": "name",
          "type": "string"
        },
        {
          "internalType": "string",
          "name": "id",
          "type": "string"
        },
        {
          "internalType": "string",
          "name": "manufactureDate",
          "type": "string"
        },
        {
          "internalType": "string",
          "name": "location",
          "type": "string"
        }
      ],
      "stateMutability": "view",
      "type": "function"
    },
    {
      "inputs": [
        {
          "internalType": "string",
          "name": "_id",
          "type": "string"
        },
        {
          "internalType": "string",
          "name": "_newLocation",
          "type": "string"
        }
      ],
      "name": "updateProductLocation",
      "outputs": [],
      "stateMutability": "nonpayable",
      "type": "function"
    },
    {
      "stateMutability": "payable",
      "type": "receive"
    }
  ],
  "bytecode": "0x608060405234801561001057600080fd5b50610c26806100206000396000f3fe6080604052600436106100435760003560e01c80630186a4231461004f5780630e34b00e1461008f57806368111cce146100b85780637ae19846146100f85761004a565b3661004a57005b600080fd5b34801561005b57600080fd5b506100766004803603810190610071919061085f565b610121565b6040516100869493929190610a24565b60405180910390f35b34801561009b57600080fd5b506100b660048036038101906100b1919061090c565b610387565b005b3480156100c457600080fd5b506100df60048036038101906100da919061085f565b610477565b6040516100ef9493929190610a24565b60405180910390f35b34801561010457600080fd5b5061011f600480360381019061011a91906108a0565b610715565b005b60008180516020810182018051848252602083016020850120818352809550505050505060009150905080600001805461015a90610b4f565b80601f016020809104026020016040519081016040528092919081815260200182805461018690610b4f565b80156101d35780601f106101a8576101008083540402835291602001916101d3565b820191906000526020600020905b8154815290600101906020018083116101b657829003601f168201915b5050505050908060010180546101e890610b4f565b80601f016020809104026020016040519081016040528092919081815260200182805461021490610b4f565b80156102615780601f1061023657610100808354040283529160200191610261565b820191906000526020600020905b81548152906001019060200180831161024457829003601f168201915b50505050509080600201805461027690610b4f565b80601f01602080910402602001604051908101604052809291908181526020018280546102a290610b4f565b80156102ef5780601f106102c4576101008083540402835291602001916102ef565b820191906000526020600020905b8154815290600101906020018083116102d257829003601f168201915b50505050509080600301805461030490610b4f565b80601f016020809104026020016040519081016040528092919081815260200182805461033090610b4f565b801561037d5780601f106103525761010080835404028352916020019161037d565b820191906000526020600020905b81548152906001019060200180831161036057829003601f168201915b5050505050905084565b60405180608001604052808481526020018381526020018281526020016040518060400160405280600f81526020017f4174204d616e75666163747572657200000000000000000000000000000000008152508152506000836040516103ed9190610a0d565b90815260200160405180910390206000820151816000019080519060200190610417929190610754565b506020820151816001019080519060200190610434929190610754565b506040820151816002019080519060200190610451929190610754565b50606082015181600301908051906020019061046e929190610754565b50905050505050565b6060806060806000808660405161048e9190610a0d565b90815260200160405180910390206040518060800160405290816000820180546104b790610b4f565b80601f01602080910402602001604051908101604052809291908181526020018280546104e390610b4f565b80156105305780601f1061050557610100808354040283529160200191610530565b820191906000526020600020905b81548152906001019060200180831161051357829003601f168201915b5050505050815260200160018201805461054990610b4f565b80601f016020809104026020016040519081016040528092919081815260200182805461057590610b4f565b80156105c25780601f10610597576101008083540402835291602001916105c2565b820191906000526020600020905b8154815290600101906020018083116105a557829003601f168201915b505050505081526020016002820180546105db90610b4f565b80601f016020809104026020016040519081016040528092919081815260200182805461060790610b4f565b80156106545780601f1061062957610100808354040283529160200191610654565b820191906000526020600020905b81548152906001019060200180831161063757829003601f168201915b5050505050815260200160038201805461066d90610b4f565b80601f016020809104026020016040519081016040528092919081815260200182805461069990610b4f565b80156106e65780601f106106bb576101008083540402835291602001916106e6565b820191906000526020600020905b8154815290600101906020018083116106c957829003601f168201915b505050505081525050905080600001518160200151826040015183606001519450945094509450509193509193565b600080836040516107269190610a0d565b908152602001604051809103902090508181600301908051906020019061074e929190610754565b50505050565b82805461076090610b4f565b90600052602060002090601f01602090048101928261078257600085556107c9565b82601f1061079b57805160ff19168380011785556107c9565b828001600101855582156107c9579182015b828111156107c85782518255916020019190600101906107ad565b5b5090506107d691906107da565b5090565b5b808211156107f35760008160009055506001016107db565b5090565b600061080a61080584610ab6565b610a85565b90508281526020810184848401111561082257600080fd5b61082d848285610b0d565b509392505050565b600082601f83011261084657600080fd5b81356108568482602086016107f7565b91505092915050565b60006020828403121561087157600080fd5b600082013567ffffffffffffffff81111561088b57600080fd5b61089784828501610835565b91505092915050565b600080604083850312156108b357600080fd5b600083013567ffffffffffffffff8111156108cd57600080fd5b6108d985828601610835565b925050602083013567ffffffffffffffff8111156108f657600080fd5b61090285828601610835565b9150509250929050565b60008060006060848603121561092157600080fd5b600084013567ffffffffffffffff81111561093b57600080fd5b61094786828701610835565b935050602084013567ffffffffffffffff81111561096457600080fd5b61097086828701610835565b925050604084013567ffffffffffffffff81111561098d57600080fd5b61099986828701610835565b9150509250925092565b60006109ae82610ae6565b6109b88185610af1565b93506109c8818560208601610b1c565b6109d181610bdf565b840191505092915050565b60006109e782610ae6565b6109f18185610b02565b9350610a01818560208601610b1c565b80840191505092915050565b6000610a1982846109dc565b915081905092915050565b60006080820190508181036000830152610a3e81876109a3565b90508181036020830152610a5281866109a3565b90508181036040830152610a6681856109a3565b90508181036060830152610a7a81846109a3565b905095945050505050565b6000604051905081810181811067ffffffffffffffff82111715610aac57610aab610bb0565b5b8060405250919050565b600067ffffffffffffffff821115610ad157610ad0610bb0565b5b601f19601f8301169050602081019050919050565b600081519050919050565b600082825260208201905092915050565b600081905092915050565b82818337600083830152505050565b60005b83811015610b3a578082015181840152602081019050610b1f565b83811115610b49576000848401525b50505050565b60006002820490506001821680610b6757607f821691505b60208210811415610b7b57610b7a610b81565b5b50919050565b7f4e487b7100000000000000000000000000000000000000000000000000000000600052602260045260246000fd5b7f4e487b7100000000000000000000000000000000000000000000000000000000600052604160045260246000fd5b6000601f19601f830116905091905056fea26469706673582212204d94f101745ec84df12da967531030f077ea918a8ecb8f05faaac2faec49f5b464736f6c63430008000033",
  "linkReferences": {},
  "deployedLinkReferences": {}
}